{
  "contractName": "BoxV2",
  "abi": [
    {
      "anonymous": false,
      "inputs": [
        {
          "indexed": false,
          "internalType": "uint256",
          "name": "value",
          "type": "uint256"
        }
      ],
      "name": "ValueChanged",
      "type": "event"
    },
    {
      "inputs": [
        {
          "internalType": "uint256",
          "name": "value",
          "type": "uint256"
        }
      ],
      "name": "store",
      "outputs": [],
      "stateMutability": "nonpayable",
      "type": "function"
    },
    {
      "inputs": [],
      "name": "retrieve",
      "outputs": [
        {
          "internalType": "uint256",
          "name": "",
          "type": "uint256"
        }
      ],
      "stateMutability": "view",
      "type": "function",
      "constant": true
    },
    {
      "inputs": [],
      "name": "increment",
      "outputs": [],
      "stateMutability": "nonpayable",
      "type": "function"
    }
  ],
  "bytecode": "0x608060405234801561001057600080fd5b5061024f806100206000396000f3fe608060405234801561001057600080fd5b50600436106100415760003560e01c80632e64cec1146100465780636057361d14610064578063d09de08a14610080575b600080fd5b61004e61008a565b60405161005b919061013d565b60405180910390f35b61007e60048036038101906100799190610189565b610093565b005b6100886100d4565b005b60008054905090565b806000819055507f93fe6d397c74fdf1402a8b72e47b68512f0510d7b98a4bc4cbdf6ac7108b3c59816040516100c9919061013d565b60405180910390a150565b60016000546100e391906101e5565b6000819055507f93fe6d397c74fdf1402a8b72e47b68512f0510d7b98a4bc4cbdf6ac7108b3c5960005460405161011a919061013d565b60405180910390a1565b6000819050919050565b61013781610124565b82525050565b6000602082019050610152600083018461012e565b92915050565b600080fd5b61016681610124565b811461017157600080fd5b50565b6000813590506101838161015d565b92915050565b60006020828403121561019f5761019e610158565b5b60006101ad84828501610174565b91505092915050565b7f4e487b7100000000000000000000000000000000000000000000000000000000600052601160045260246000fd5b60006101f082610124565b91506101fb83610124565b9250828201905080821115610213576102126101b6565b5b9291505056fea2646970667358221220e61817b3b77d7f91c8cda121e763e3fcdd3625d8001119f6c06fc85ce846efc864736f6c63430008100033",
  "immutableReferences": {},
  "source": "// contracts/BoxV2.sol\n// SPDX-License-Identifier: MIT\npragma solidity ^0.8.0;\n\ncontract BoxV2 {\n  uint256 private _value;\n\n  // Emitted when the stored value changes\n  event ValueChanged(uint256 value);\n\n  // Stores a new value in the contract\n  function store(uint256 value) public {\n    _value = value;\n    emit ValueChanged(value);\n  }\n\n  // Reads the last stored value\n  function retrieve() public view returns (uint256) {\n    return _value;\n  }\n\n  // Increments the stored value by 1\n  function increment() public {\n    _value = _value + 1;\n    emit ValueChanged(_value);\n  }\n}\n",
  "sourcePath": "/home/memo/Sandbox/upgradable-contracts/contracts/BoxV2.sol",
  "compiler": {
    "name": "solc",
    "version": "0.8.16+commit.07a7930e.Emscripten.clang"
  },
  "schemaVersion": "3.4.9",
  "updatedAt": "2022-09-14T21:50:25.374Z",
  "networkType": "ethereum",
  "devdoc": {
    "kind": "dev",
    "methods": {},
    "version": 1
  },
  "userdoc": {
    "kind": "user",
    "methods": {},
    "version": 1
  }
}